{
  "abi": [
    {
      "type": "constructor",
      "inputs": [
        {
          "name": "_researchSubmission",
          "type": "address",
          "internalType": "address"
        }
      ],
      "stateMutability": "nonpayable"
    },
    {
      "type": "function",
      "name": "bounties",
      "inputs": [
        {
          "name": "",
          "type": "uint256",
          "internalType": "uint256"
        }
      ],
      "outputs": [
        {
          "name": "studyId",
          "type": "uint256",
          "internalType": "uint256"
        },
        {
          "name": "funder",
          "type": "address",
          "internalType": "address"
        },
        {
          "name": "amount",
          "type": "uint256",
          "internalType": "uint256"
        },
        {
          "name": "deadline",
          "type": "uint256",
          "internalType": "uint256"
        },
        {
          "name": "validator",
          "type": "address",
          "internalType": "address"
        },
        {
          "name": "status",
          "type": "uint8",
          "internalType": "enum BountyManager.BountyStatus"
        }
      ],
      "stateMutability": "view"
    },
    {
      "type": "function",
      "name": "bountyCount",
      "inputs": [],
      "outputs": [
        {
          "name": "",
          "type": "uint256",
          "internalType": "uint256"
        }
      ],
      "stateMutability": "view"
    },
    {
      "type": "function",
      "name": "getAllBounties",
      "inputs": [],
      "outputs": [
        {
          "name": "",
          "type": "tuple[]",
          "internalType": "struct BountyManager.Bounty[]",
          "components": [
            {
              "name": "studyId",
              "type": "uint256",
              "internalType": "uint256"
            },
            {
              "name": "funder",
              "type": "address",
              "internalType": "address"
            },
            {
              "name": "amount",
              "type": "uint256",
              "internalType": "uint256"
            },
            {
              "name": "deadline",
              "type": "uint256",
              "internalType": "uint256"
            },
            {
              "name": "validator",
              "type": "address",
              "internalType": "address"
            },
            {
              "name": "status",
              "type": "uint8",
              "internalType": "enum BountyManager.BountyStatus"
            }
          ]
        }
      ],
      "stateMutability": "view"
    },
    {
      "type": "function",
      "name": "getBounty",
      "inputs": [
        {
          "name": "bountyId",
          "type": "uint256",
          "internalType": "uint256"
        }
      ],
      "outputs": [
        {
          "name": "",
          "type": "tuple",
          "internalType": "struct BountyManager.Bounty",
          "components": [
            {
              "name": "studyId",
              "type": "uint256",
              "internalType": "uint256"
            },
            {
              "name": "funder",
              "type": "address",
              "internalType": "address"
            },
            {
              "name": "amount",
              "type": "uint256",
              "internalType": "uint256"
            },
            {
              "name": "deadline",
              "type": "uint256",
              "internalType": "uint256"
            },
            {
              "name": "validator",
              "type": "address",
              "internalType": "address"
            },
            {
              "name": "status",
              "type": "uint8",
              "internalType": "enum BountyManager.BountyStatus"
            }
          ]
        }
      ],
      "stateMutability": "view"
    },
    {
      "type": "function",
      "name": "isFunded",
      "inputs": [
        {
          "name": "",
          "type": "uint256",
          "internalType": "uint256"
        }
      ],
      "outputs": [
        {
          "name": "",
          "type": "bool",
          "internalType": "bool"
        }
      ],
      "stateMutability": "view"
    },
    {
      "type": "function",
      "name": "postBounty",
      "inputs": [
        {
          "name": "studyId",
          "type": "uint256",
          "internalType": "uint256"
        },
        {
          "name": "durationSeconds",
          "type": "uint256",
          "internalType": "uint256"
        }
      ],
      "outputs": [
        {
          "name": "",
          "type": "uint256",
          "internalType": "uint256"
        }
      ],
      "stateMutability": "payable"
    },
    {
      "type": "function",
      "name": "refundExpiredBounty",
      "inputs": [
        {
          "name": "bountyId",
          "type": "uint256",
          "internalType": "uint256"
        }
      ],
      "outputs": [],
      "stateMutability": "nonpayable"
    },
    {
      "type": "function",
      "name": "researchContract",
      "inputs": [],
      "outputs": [
        {
          "name": "",
          "type": "address",
          "internalType": "contract IResearchSubmission"
        }
      ],
      "stateMutability": "view"
    },
    {
      "type": "function",
      "name": "studyToBounty",
      "inputs": [
        {
          "name": "",
          "type": "uint256",
          "internalType": "uint256"
        }
      ],
      "outputs": [
        {
          "name": "",
          "type": "uint256",
          "internalType": "uint256"
        }
      ],
      "stateMutability": "view"
    },
    {
      "type": "function",
      "name": "submitValidation",
      "inputs": [
        {
          "name": "bountyId",
          "type": "uint256",
          "internalType": "uint256"
        },
        {
          "name": "reportURI",
          "type": "string",
          "internalType": "string"
        }
      ],
      "outputs": [],
      "stateMutability": "nonpayable"
    },
    {
      "type": "event",
      "name": "BountyClaimed",
      "inputs": [
        {
          "name": "bountyId",
          "type": "uint256",
          "indexed": true,
          "internalType": "uint256"
        },
        {
          "name": "validator",
          "type": "address",
          "indexed": true,
          "internalType": "address"
        }
      ],
      "anonymous": false
    },
    {
      "type": "event",
      "name": "BountyPosted",
      "inputs": [
        {
          "name": "bountyId",
          "type": "uint256",
          "indexed": true,
          "internalType": "uint256"
        },
        {
          "name": "studyId",
          "type": "uint256",
          "indexed": true,
          "internalType": "uint256"
        },
        {
          "name": "funder",
          "type": "address",
          "indexed": false,
          "internalType": "address"
        },
        {
          "name": "amount",
          "type": "uint256",
          "indexed": false,
          "internalType": "uint256"
        },
        {
          "name": "deadline",
          "type": "uint256",
          "indexed": false,
          "internalType": "uint256"
        }
      ],
      "anonymous": false
    },
    {
      "type": "event",
      "name": "ValidationSubmitted",
      "inputs": [
        {
          "name": "bountyId",
          "type": "uint256",
          "indexed": true,
          "internalType": "uint256"
        },
        {
          "name": "validator",
          "type": "address",
          "indexed": true,
          "internalType": "address"
        },
        {
          "name": "reportURI",
          "type": "string",
          "indexed": false,
          "internalType": "string"
        }
      ],
      "anonymous": false
    }
  ],
  "bytecode": {
    "object": "0x608060405234801561000f575f5ffd5b50604051611d4b380380611d4b83398181016040528101906100319190610143565b5f73ffffffffffffffffffffffffffffffffffffffff168173ffffffffffffffffffffffffffffffffffffffff160361009f576040517f08c379a0000000000000000000000000000000000000000000000000000000008152600401610096906101c8565b60405180910390fd5b8060015f6101000a81548173ffffffffffffffffffffffffffffffffffffffff021916908373ffffffffffffffffffffffffffffffffffffffff160217905550506101e6565b5f5ffd5b5f73ffffffffffffffffffffffffffffffffffffffff82169050919050565b5f610112826100e9565b9050919050565b61012281610108565b811461012c575f5ffd5b50565b5f8151905061013d81610119565b92915050565b5f60208284031215610158576101576100e5565b5b5f6101658482850161012f565b91505092915050565b5f82825260208201905092915050565b7f5a65726f20726573656172636820636f6e7472616374000000000000000000005f82015250565b5f6101b260168361016e565b91506101bd8261017e565b602082019050919050565b5f6020820190508181035f8301526101df816101a6565b9050919050565b611b58806101f35f395ff3fe608060405260043610610090575f3560e01c8063ba934ed511610058578063ba934ed514610174578063be3e27cf146101b0578063dc2f8744146101e0578063ee8c4bbf14610221578063f19243501461025d57610090565b80630f2aff031461009457806338db39c7146100bc5780633e362c96146100e45780638f8e42f61461010e578063ab643c071461014a575b5f5ffd5b34801561009f575f5ffd5b506100ba60048036038101906100b59190611050565b610287565b005b3480156100c7575f5ffd5b506100e260048036038101906100dd91906110dc565b6104b3565b005b3480156100ef575f5ffd5b506100f8610849565b6040516101059190611148565b60405180910390f35b348015610119575f5ffd5b50610134600480360381019061012f9190611050565b61084e565b604051610141919061117b565b60405180910390f35b348015610155575f5ffd5b5061015e61086b565b60405161016b9190611376565b60405180910390f35b34801561017f575f5ffd5b5061019a60048036038101906101959190611050565b610a36565b6040516101a79190611148565b60405180910390f35b6101ca60048036038101906101c59190611396565b610a4b565b6040516101d79190611148565b60405180910390f35b3480156101eb575f5ffd5b5061020660048036038101906102019190611050565b610d81565b604051610218969594939291906113f2565b60405180910390f35b34801561022c575f5ffd5b5061024760048036038101906102429190611050565b610e04565b60405161025491906114ca565b60405180910390f35b348015610268575f5ffd5b50610271610f82565b60405161027e919061153e565b60405180910390f35b805f8111801561029857505f548111155b6102d7576040517f08c379a00000000000000000000000000000000000000000000000000000000081526004016102ce906115b1565b60405180910390fd5b5f60025f8481526020019081526020015f2090505f60028111156102fe576102fd61120b565b5b8160040160149054906101000a900460ff1660028111156103225761032161120b565b5b14610362576040517f08c379a000000000000000000000000000000000000000000000000000000000815260040161035990611619565b60405180910390fd5b806003015442116103a8576040517f08c379a000000000000000000000000000000000000000000000000000000000815260040161039f90611681565b60405180910390fd5b806001015f9054906101000a900473ffffffffffffffffffffffffffffffffffffffff1673ffffffffffffffffffffffffffffffffffffffff163373ffffffffffffffffffffffffffffffffffffffff1614610439576040517f08c379a0000000000000000000000000000000000000000000000000000000008152600401610430906116e9565b60405180910390fd5b60028160040160146101000a81548160ff021916908360028111156104615761046061120b565b5b02179055503373ffffffffffffffffffffffffffffffffffffffff166108fc826002015490811502906040515f60405180830381858888f193505050501580156104ad573d5f5f3e3d5ffd5b50505050565b825f811180156104c457505f548111155b610503576040517f08c379a00000000000000000000000000000000000000000000000000000000081526004016104fa906115b1565b60405180910390fd5b5f60025f8681526020019081526020015f2090505f600281111561052a5761052961120b565b5b8160040160149054906101000a900460ff16600281111561054e5761054d61120b565b5b1461058e576040517f08c379a000000000000000000000000000000000000000000000000000000000815260040161058590611751565b60405180910390fd5b80600301544211156105d5576040517f08c379a00000000000000000000000000000000000000000000000000000000081526004016105cc906117b9565b60405180910390fd5b5f73ffffffffffffffffffffffffffffffffffffffff16816004015f9054906101000a900473ffffffffffffffffffffffffffffffffffffffff1673ffffffffffffffffffffffffffffffffffffffff1614610666576040517f08c379a000000000000000000000000000000000000000000000000000000000815260040161065d90611821565b60405180910390fd5b33816004015f6101000a81548173ffffffffffffffffffffffffffffffffffffffff021916908373ffffffffffffffffffffffffffffffffffffffff16021790555060018160040160146101000a81548160ff021916908360028111156106d0576106cf61120b565b5b02179055503373ffffffffffffffffffffffffffffffffffffffff166108fc826002015490811502906040515f60405180830381858888f1935050505015801561071c573d5f5f3e3d5ffd5b5060015f9054906101000a900473ffffffffffffffffffffffffffffffffffffffff1673ffffffffffffffffffffffffffffffffffffffff16632697b1c1825f01543387876040518563ffffffff1660e01b81526004016107809493929190611889565b5f604051808303815f87803b158015610797575f5ffd5b505af11580156107a9573d5f5f3e3d5ffd5b505050503373ffffffffffffffffffffffffffffffffffffffff16857fd89e24a8d14ebf50d55b1f8e9c518b3e0541762b567131f15e867408c4388ecf86866040516107f69291906118c7565b60405180910390a33373ffffffffffffffffffffffffffffffffffffffff16857fbf59c0d059a57ebf273b4b1643599fc4b48cf5effdd82113a740ed64d262ec9360405160405180910390a35050505050565b5f5481565b6003602052805f5260405f205f915054906101000a900460ff1681565b60605f5f5467ffffffffffffffff811115610889576108886118e9565b5b6040519080825280602002602001820160405280156108c257816020015b6108af610fa7565b8152602001906001900390816108a75790505b5090505f600190505b5f548111610a2e5760025f8281526020019081526020015f206040518060c00160405290815f8201548152602001600182015f9054906101000a900473ffffffffffffffffffffffffffffffffffffffff1673ffffffffffffffffffffffffffffffffffffffff1673ffffffffffffffffffffffffffffffffffffffff1681526020016002820154815260200160038201548152602001600482015f9054906101000a900473ffffffffffffffffffffffffffffffffffffffff1673ffffffffffffffffffffffffffffffffffffffff1673ffffffffffffffffffffffffffffffffffffffff1681526020016004820160149054906101000a900460ff1660028111156109db576109da61120b565b5b60028111156109ed576109ec61120b565b5b81525050826001836109ff9190611943565b81518110610a1057610a0f611976565b5b60200260200101819052508080610a26906119a3565b9150506108cb565b508091505090565b6004602052805f5260405f205f915090505481565b5f5f3411610a8e576040517f08c379a0000000000000000000000000000000000000000000000000000000008152600401610a8590611a34565b60405180910390fd5b60035f8481526020019081526020015f205f9054906101000a900460ff1615610aec576040517f08c379a0000000000000000000000000000000000000000000000000000000008152600401610ae390611a9c565b60405180910390fd5b5f5f815480929190610afd906119a3565b91905055505f5f5490506040518060c001604052808581526020013373ffffffffffffffffffffffffffffffffffffffff1681526020013481526020018442610b469190611aba565b81526020015f73ffffffffffffffffffffffffffffffffffffffff1681526020015f6002811115610b7a57610b7961120b565b5b81525060025f8381526020019081526020015f205f820151815f01556020820151816001015f6101000a81548173ffffffffffffffffffffffffffffffffffffffff021916908373ffffffffffffffffffffffffffffffffffffffff16021790555060408201518160020155606082015181600301556080820151816004015f6101000a81548173ffffffffffffffffffffffffffffffffffffffff021916908373ffffffffffffffffffffffffffffffffffffffff16021790555060a08201518160040160146101000a81548160ff02191690836002811115610c6157610c6061120b565b5b0217905550905050600160035f8681526020019081526020015f205f6101000a81548160ff0219169083151502179055508060045f8681526020019081526020015f208190555060015f9054906101000a900473ffffffffffffffffffffffffffffffffffffffff1673ffffffffffffffffffffffffffffffffffffffff166335761476856040518263ffffffff1660e01b8152600401610d029190611148565b5f604051808303815f87803b158015610d19575f5ffd5b505af1158015610d2b573d5f5f3e3d5ffd5b5050505083817f75f4c9d71620f7bb206fbb28513e8177f692a794609dbb472f5df274ea6b748133348742610d609190611aba565b604051610d6f93929190611aed565b60405180910390a38091505092915050565b6002602052805f5260405f205f91509050805f015490806001015f9054906101000a900473ffffffffffffffffffffffffffffffffffffffff1690806002015490806003015490806004015f9054906101000a900473ffffffffffffffffffffffffffffffffffffffff16908060040160149054906101000a900460ff16905086565b610e0c610fa7565b815f81118015610e1d57505f548111155b610e5c576040517f08c379a0000000000000000000000000000000000000000000000000000000008152600401610e53906115b1565b60405180910390fd5b60025f8481526020019081526020015f206040518060c00160405290815f8201548152602001600182015f9054906101000a900473ffffffffffffffffffffffffffffffffffffffff1673ffffffffffffffffffffffffffffffffffffffff1673ffffffffffffffffffffffffffffffffffffffff1681526020016002820154815260200160038201548152602001600482015f9054906101000a900473ffffffffffffffffffffffffffffffffffffffff1673ffffffffffffffffffffffffffffffffffffffff1673ffffffffffffffffffffffffffffffffffffffff1681526020016004820160149054906101000a900460ff166002811115610f6457610f6361120b565b5b6002811115610f7657610f7561120b565b5b81525050915050919050565b60015f9054906101000a900473ffffffffffffffffffffffffffffffffffffffff1681565b6040518060c001604052805f81526020015f73ffffffffffffffffffffffffffffffffffffffff1681526020015f81526020015f81526020015f73ffffffffffffffffffffffffffffffffffffffff1681526020015f600281111561100f5761100e61120b565b5b81525090565b5f5ffd5b5f5ffd5b5f819050919050565b61102f8161101d565b8114611039575f5ffd5b50565b5f8135905061104a81611026565b92915050565b5f6020828403121561106557611064611015565b5b5f6110728482850161103c565b91505092915050565b5f5ffd5b5f5ffd5b5f5ffd5b5f5f83601f84011261109c5761109b61107b565b5b8235905067ffffffffffffffff8111156110b9576110b861107f565b5b6020830191508360018202830111156110d5576110d4611083565b5b9250929050565b5f5f5f604084860312156110f3576110f2611015565b5b5f6111008682870161103c565b935050602084013567ffffffffffffffff81111561112157611120611019565b5b61112d86828701611087565b92509250509250925092565b6111428161101d565b82525050565b5f60208201905061115b5f830184611139565b92915050565b5f8115159050919050565b61117581611161565b82525050565b5f60208201905061118e5f83018461116c565b92915050565b5f81519050919050565b5f82825260208201905092915050565b5f819050602082019050919050565b6111c68161101d565b82525050565b5f73ffffffffffffffffffffffffffffffffffffffff82169050919050565b5f6111f5826111cc565b9050919050565b611205816111eb565b82525050565b7f4e487b71000000000000000000000000000000000000000000000000000000005f52602160045260245ffd5b600381106112495761124861120b565b5b50565b5f81905061125982611238565b919050565b5f6112688261124c565b9050919050565b6112788161125e565b82525050565b60c082015f8201516112925f8501826111bd565b5060208201516112a560208501826111fc565b5060408201516112b860408501826111bd565b5060608201516112cb60608501826111bd565b5060808201516112de60808501826111fc565b5060a08201516112f160a085018261126f565b50505050565b5f611302838361127e565b60c08301905092915050565b5f602082019050919050565b5f61132482611194565b61132e818561119e565b9350611339836111ae565b805f5b8381101561136957815161135088826112f7565b975061135b8361130e565b92505060018101905061133c565b5085935050505092915050565b5f6020820190508181035f83015261138e818461131a565b905092915050565b5f5f604083850312156113ac576113ab611015565b5b5f6113b98582860161103c565b92505060206113ca8582860161103c565b9150509250929050565b6113dd816111eb565b82525050565b6113ec8161125e565b82525050565b5f60c0820190506114055f830189611139565b61141260208301886113d4565b61141f6040830187611139565b61142c6060830186611139565b61143960808301856113d4565b61144660a08301846113e3565b979650505050505050565b60c082015f8201516114655f8501826111bd565b50602082015161147860208501826111fc565b50604082015161148b60408501826111bd565b50606082015161149e60608501826111bd565b5060808201516114b160808501826111fc565b5060a08201516114c460a085018261126f565b50505050565b5f60c0820190506114dd5f830184611451565b92915050565b5f819050919050565b5f6115066115016114fc846111cc565b6114e3565b6111cc565b9050919050565b5f611517826114ec565b9050919050565b5f6115288261150d565b9050919050565b6115388161151e565b82525050565b5f6020820190506115515f83018461152f565b92915050565b5f82825260208201905092915050565b7f496e76616c696420626f756e74794964000000000000000000000000000000005f82015250565b5f61159b601083611557565b91506115a682611567565b602082019050919050565b5f6020820190508181035f8301526115c88161158f565b9050919050565b7f4e6f74206f70656e0000000000000000000000000000000000000000000000005f82015250565b5f611603600883611557565b915061160e826115cf565b602082019050919050565b5f6020820190508181035f830152611630816115f7565b9050919050565b7f546f6f206561726c7900000000000000000000000000000000000000000000005f82015250565b5f61166b600983611557565b915061167682611637565b602082019050919050565b5f6020820190508181035f8301526116988161165f565b9050919050565b7f4e6f742066756e646572000000000000000000000000000000000000000000005f82015250565b5f6116d3600a83611557565b91506116de8261169f565b602082019050919050565b5f6020820190508181035f830152611700816116c7565b9050919050565b7f426f756e747920636c6f736564000000000000000000000000000000000000005f82015250565b5f61173b600d83611557565b915061174682611707565b602082019050919050565b5f6020820190508181035f8301526117688161172f565b9050919050565b7f426f756e747920657870697265640000000000000000000000000000000000005f82015250565b5f6117a3600e83611557565b91506117ae8261176f565b602082019050919050565b5f6020820190508181035f8301526117d081611797565b9050919050565b7f416c72656164792076616c6964617465640000000000000000000000000000005f82015250565b5f61180b601183611557565b9150611816826117d7565b602082019050919050565b5f6020820190508181035f830152611838816117ff565b9050919050565b828183375f83830152505050565b5f601f19601f8301169050919050565b5f6118688385611557565b935061187583858461183f565b61187e8361184d565b840190509392505050565b5f60608201905061189c5f830187611139565b6118a960208301866113d4565b81810360408301526118bc81848661185d565b905095945050505050565b5f6020820190508181035f8301526118e081848661185d565b90509392505050565b7f4e487b71000000000000000000000000000000000000000000000000000000005f52604160045260245ffd5b7f4e487b71000000000000000000000000000000000000000000000000000000005f52601160045260245ffd5b5f61194d8261101d565b91506119588361101d565b92508282039050818111156119705761196f611916565b5b92915050565b7f4e487b71000000000000000000000000000000000000000000000000000000005f52603260045260245ffd5b5f6119ad8261101d565b91507fffffffffffffffffffffffffffffffffffffffffffffffffffffffffffffffff82036119df576119de611916565b5b600182019050919050565b7f4e6f2066756e64730000000000000000000000000000000000000000000000005f82015250565b5f611a1e600883611557565b9150611a29826119ea565b602082019050919050565b5f6020820190508181035f830152611a4b81611a12565b9050919050565b7f416c72656164792066756e6465640000000000000000000000000000000000005f82015250565b5f611a86600e83611557565b9150611a9182611a52565b602082019050919050565b5f6020820190508181035f830152611ab381611a7a565b9050919050565b5f611ac48261101d565b9150611acf8361101d565b9250828201905080821115611ae757611ae6611916565b5b92915050565b5f606082019050611b005f8301866113d4565b611b0d6020830185611139565b611b1a6040830184611139565b94935050505056fea26469706673582212201958aa623d6a9f22df89b0981037b1ef91f0cf4801491698a61eabbcd8406bb664736f6c634300081e0033",
    "linkReferences": {}
  },
  "methodIdentifiers": {
    "bounties(uint256)": "dc2f8744",
    "bountyCount()": "3e362c96",
    "getAllBounties()": "ab643c07",
    "getBounty(uint256)": "ee8c4bbf",
    "isFunded(uint256)": "8f8e42f6",
    "postBounty(uint256,uint256)": "be3e27cf",
    "refundExpiredBounty(uint256)": "0f2aff03",
    "researchContract()": "f1924350",
    "studyToBounty(uint256)": "ba934ed5",
    "submitValidation(uint256,string)": "38db39c7"
  },
  "id": 17
}