{"abi":[{"type":"function","name":"fundStudy","inputs":[{"name":"studyId","type":"uint256","internalType":"uint256"}],"outputs":[],"stateMutability":"payable"},{"type":"function","name":"getStudiesByResearcher","inputs":[{"name":"researcher","type":"address","internalType":"address"}],"outputs":[{"name":"","type":"uint256[]","internalType":"uint256[]"}],"stateMutability":"view"},{"type":"function","name":"getStudy","inputs":[{"name":"studyId","type":"uint256","internalType":"uint256"}],"outputs":[{"name":"","type":"tuple","internalType":"struct ResearchSubmission.Study","components":[{"name":"id","type":"uint256","internalType":"uint256"},{"name":"researcher","type":"address","internalType":"address"},{"name":"dataURI","type":"string","internalType":"string"},{"name":"metadataJSON","type":"string","internalType":"string"},{"name":"timestamp","type":"uint256","internalType":"uint256"},{"name":"status","type":"uint8","internalType":"enum ResearchSubmission.ResearchStatus"},{"name":"funder","type":"address","internalType":"address"},{"name":"validator","type":"address","internalType":"address"},{"name":"reportURI","type":"string","internalType":"string"},{"name":"aiReadinessScore","type":"uint8","internalType":"uint8"}]}],"stateMutability":"view"},{"type":"function","name":"markUnderReview","inputs":[{"name":"studyId","type":"uint256","internalType":"uint256"}],"outputs":[],"stateMutability":"nonpayable"},{"type":"function","name":"researcherStudies","inputs":[{"name":"","type":"address","internalType":"address"},{"name":"","type":"uint256","internalType":"uint256"}],"outputs":[{"name":"","type":"uint256","internalType":"uint256"}],"stateMutability":"view"},{"type":"function","name":"studies","inputs":[{"name":"","type":"uint256","internalType":"uint256"}],"outputs":[{"name":"id","type":"uint256","internalType":"uint256"},{"name":"researcher","type":"address","internalType":"address"},{"name":"dataURI","type":"string","internalType":"string"},{"name":"metadataJSON","type":"string","internalType":"string"},{"name":"timestamp","type":"uint256","internalType":"uint256"},{"name":"status","type":"uint8","internalType":"enum ResearchSubmission.ResearchStatus"},{"name":"funder","type":"address","internalType":"address"},{"name":"validator","type":"address","internalType":"address"},{"name":"reportURI","type":"string","internalType":"string"},{"name":"aiReadinessScore","type":"uint8","internalType":"uint8"}],"stateMutability":"view"},{"type":"function","name":"studyCount","inputs":[],"outputs":[{"name":"","type":"uint256","internalType":"uint256"}],"stateMutability":"view"},{"type":"function","name":"submitStudy","inputs":[{"name":"dataURI","type":"string","internalType":"string"},{"name":"metadataJSON","type":"string","internalType":"string"},{"name":"aiReadinessScore","type":"uint8","internalType":"uint8"}],"outputs":[{"name":"","type":"uint256","internalType":"uint256"}],"stateMutability":"nonpayable"},{"type":"function","name":"submitValidation","inputs":[{"name":"studyId","type":"uint256","internalType":"uint256"},{"name":"validator","type":"address","internalType":"address"},{"name":"reportURI","type":"string","internalType":"string"}],"outputs":[],"stateMutability":"nonpayable"},{"type":"event","name":"StatusUpdated","inputs":[{"name":"studyId","type":"uint256","indexed":true,"internalType":"uint256"},{"name":"newStatus","type":"uint8","indexed":false,"internalType":"enum ResearchSubmission.ResearchStatus"}],"anonymous":false},{"type":"event","name":"StudyFunded","inputs":[{"name":"studyId","type":"uint256","indexed":true,"internalType":"uint256"},{"name":"funder","type":"address","indexed":true,"internalType":"address"}],"anonymous":false},{"type":"event","name":"StudySubmitted","inputs":[{"name":"studyId","type":"uint256","indexed":true,"internalType":"uint256"},{"name":"researcher","type":"address","indexed":true,"internalType":"address"},{"name":"dataURI","type":"string","indexed":false,"internalType":"string"},{"name":"metadataJSON","type":"string","indexed":false,"internalType":"string"},{"name":"aiReadinessScore","type":"uint8","indexed":false,"internalType":"uint8"}],"anonymous":false},{"type":"event","name":"ValidationSubmitted","inputs":[{"name":"studyId","type":"uint256","indexed":true,"internalType":"uint256"},{"name":"validator","type":"address","indexed":true,"internalType":"address"},{"name":"reportURI","type":"string","indexed":false,"internalType":"string"}],"anonymous":false}],"bytecode":{"object":"0x6080604052348015600e575f5ffd5b50611f038061001c5f395ff3fe608060405260043610610085575f3560e01c80635d600383116100585780635d60038314610151578063611d2c961461016d578063b16345eb146101b2578063e455fa5a146101ee578063ecc6cbb41461021857610085565b80632697b1c11461008957806327aa87d7146100b157806335761476146100ed57806352b2f85214610115575b5f5ffd5b348015610094575f5ffd5b506100af60048036038101906100aa9190611238565b610254565b005b3480156100bc575f5ffd5b506100d760048036038101906100d291906112a9565b6103f2565b6040516100e491906112f6565b60405180910390f35b3480156100f8575f5ffd5b50610113600480360381019061010e919061130f565b61041d565b005b348015610120575f5ffd5b5061013b60048036038101906101369190611370565b610511565b60405161014891906112f6565b60405180910390f35b61016b6004803603810190610166919061130f565b6108ae565b005b348015610178575f5ffd5b50610193600480360381019061018e919061130f565b610a6a565b6040516101a99a99989796959493929190611502565b60405180910390f35b3480156101bd575f5ffd5b506101d860048036038101906101d391906115b1565b610cc2565b6040516101e59190611693565b60405180910390f35b3480156101f9575f5ffd5b50610202610d55565b60405161020f91906112f6565b60405180910390f35b348015610223575f5ffd5b5061023e6004803603810190610239919061130f565b610d5a565b60405161024b919061180d565b60405180910390f35b5f60015f8681526020019081526020015f2090506001600381111561027c5761027b611480565b5b816005015f9054906101000a900460ff16600381111561029f5761029e611480565b5b146102df576040517f08c379a00000000000000000000000000000000000000000000000000000000081526004016102d690611877565b60405180910390fd5b83816006015f6101000a81548173ffffffffffffffffffffffffffffffffffffffff021916908373ffffffffffffffffffffffffffffffffffffffff1602179055508282826007019182610334929190611ac9565b506003816005015f6101000a81548160ff0219169083600381111561035c5761035b611480565b5b02179055508373ffffffffffffffffffffffffffffffffffffffff16857fd89e24a8d14ebf50d55b1f8e9c518b3e0541762b567131f15e867408c4388ecf85856040516103aa929190611bd0565b60405180910390a3847f2da7b23ca63c1eb969eee5fae4acb98186abecf5358b0354a82a5183ebca6b2a60036040516103e39190611bf2565b60405180910390a25050505050565b6002602052815f5260405f20818154811061040b575f80fd5b905f5260205f20015f91509150505481565b5f60015f8381526020019081526020015f2090506001600381111561044557610444611480565b5b816005015f9054906101000a900460ff16600381111561046857610467611480565b5b146104a8576040517f08c379a000000000000000000000000000000000000000000000000000000000815260040161049f90611c55565b60405180910390fd5b6002816005015f6101000a81548160ff021916908360038111156104cf576104ce611480565b5b0217905550817f2da7b23ca63c1eb969eee5fae4acb98186abecf5358b0354a82a5183ebca6b2a60026040516105059190611bf2565b60405180910390a25050565b5f5f5f81548092919061052390611ca0565b91905055506040518061014001604052805f5481526020013373ffffffffffffffffffffffffffffffffffffffff16815260200187878080601f0160208091040260200160405190810160405280939291908181526020018383808284375f81840152601f19601f82011690508083019250505050505050815260200185858080601f0160208091040260200160405190810160405280939291908181526020018383808284375f81840152601f19601f8201169050808301925050505050505081526020014281526020015f600381111561060257610601611480565b5b81526020015f73ffffffffffffffffffffffffffffffffffffffff1681526020015f73ffffffffffffffffffffffffffffffffffffffff16815260200160405180602001604052805f81525081526020018360ff1681525060015f5f5481526020019081526020015f205f820151815f01556020820151816001015f6101000a81548173ffffffffffffffffffffffffffffffffffffffff021916908373ffffffffffffffffffffffffffffffffffffffff16021790555060408201518160020190816106cf9190611ce7565b5060608201518160030190816106e59190611ce7565b506080820151816004015560a0820151816005015f6101000a81548160ff0219169083600381111561071a57610719611480565b5b021790555060c08201518160050160016101000a81548173ffffffffffffffffffffffffffffffffffffffff021916908373ffffffffffffffffffffffffffffffffffffffff16021790555060e0820151816006015f6101000a81548173ffffffffffffffffffffffffffffffffffffffff021916908373ffffffffffffffffffffffffffffffffffffffff1602179055506101008201518160070190816107c29190611ce7565b50610120820151816008015f6101000a81548160ff021916908360ff16021790555090505060025f3373ffffffffffffffffffffffffffffffffffffffff1673ffffffffffffffffffffffffffffffffffffffff1681526020019081526020015f205f54908060018154018082558091505060019003905f5260205f20015f90919091909150553373ffffffffffffffffffffffffffffffffffffffff165f547f71e784ad0fc354936e1004a6be6ef8d7d2df0d9ed2507d82b80c9933b507615d8888888888604051610899959493929190611db6565b60405180910390a35f54905095945050505050565b5f60015f8381526020019081526020015f2090505f60038111156108d5576108d4611480565b5b816005015f9054906101000a900460ff1660038111156108f8576108f7611480565b5b14610938576040517f08c379a000000000000000000000000000000000000000000000000000000000815260040161092f90611e47565b60405180910390fd5b5f341161097a576040517f08c379a000000000000000000000000000000000000000000000000000000000815260040161097190611eaf565b60405180910390fd5b338160050160016101000a81548173ffffffffffffffffffffffffffffffffffffffff021916908373ffffffffffffffffffffffffffffffffffffffff1602179055506001816005015f6101000a81548160ff021916908360038111156109e4576109e3611480565b5b02179055503373ffffffffffffffffffffffffffffffffffffffff16827f3b3e2433c30421caf3a6bf4c0afbd0119d20eff6b1886625d7eb6f3995b30db960405160405180910390a3817f2da7b23ca63c1eb969eee5fae4acb98186abecf5358b0354a82a5183ebca6b2a6001604051610a5e9190611bf2565b60405180910390a25050565b6001602052805f5260405f205f91509050805f015490806001015f9054906101000a900473ffffffffffffffffffffffffffffffffffffffff1690806002018054610ab4906118f9565b80601f0160208091040260200160405190810160405280929190818152602001828054610ae0906118f9565b8015610b2b5780601f10610b0257610100808354040283529160200191610b2b565b820191905f5260205f20905b815481529060010190602001808311610b0e57829003601f168201915b505050505090806003018054610b40906118f9565b80601f0160208091040260200160405190810160405280929190818152602001828054610b6c906118f9565b8015610bb75780601f10610b8e57610100808354040283529160200191610bb7565b820191905f5260205f20905b815481529060010190602001808311610b9a57829003601f168201915b505050505090806004015490806005015f9054906101000a900460ff16908060050160019054906101000a900473ffffffffffffffffffffffffffffffffffffffff1690806006015f9054906101000a900473ffffffffffffffffffffffffffffffffffffffff1690806007018054610c2f906118f9565b80601f0160208091040260200160405190810160405280929190818152602001828054610c5b906118f9565b8015610ca65780601f10610c7d57610100808354040283529160200191610ca6565b820191905f5260205f20905b815481529060010190602001808311610c8957829003601f168201915b505050505090806008015f9054906101000a900460ff1690508a565b606060025f8373ffffffffffffffffffffffffffffffffffffffff1673ffffffffffffffffffffffffffffffffffffffff1681526020019081526020015f20805480602002602001604051908101604052809291908181526020018280548015610d4957602002820191905f5260205f20905b815481526020019060010190808311610d35575b50505050509050919050565b5f5481565b610d6261109f565b60015f8381526020019081526020015f20604051806101400160405290815f8201548152602001600182015f9054906101000a900473ffffffffffffffffffffffffffffffffffffffff1673ffffffffffffffffffffffffffffffffffffffff1673ffffffffffffffffffffffffffffffffffffffff168152602001600282018054610ded906118f9565b80601f0160208091040260200160405190810160405280929190818152602001828054610e19906118f9565b8015610e645780601f10610e3b57610100808354040283529160200191610e64565b820191905f5260205f20905b815481529060010190602001808311610e4757829003601f168201915b50505050508152602001600382018054610e7d906118f9565b80601f0160208091040260200160405190810160405280929190818152602001828054610ea9906118f9565b8015610ef45780601f10610ecb57610100808354040283529160200191610ef4565b820191905f5260205f20905b815481529060010190602001808311610ed757829003601f168201915b5050505050815260200160048201548152602001600582015f9054906101000a900460ff166003811115610f2b57610f2a611480565b5b6003811115610f3d57610f3c611480565b5b81526020016005820160019054906101000a900473ffffffffffffffffffffffffffffffffffffffff1673ffffffffffffffffffffffffffffffffffffffff1673ffffffffffffffffffffffffffffffffffffffff168152602001600682015f9054906101000a900473ffffffffffffffffffffffffffffffffffffffff1673ffffffffffffffffffffffffffffffffffffffff1673ffffffffffffffffffffffffffffffffffffffff168152602001600782018054610ffc906118f9565b80601f0160208091040260200160405190810160405280929190818152602001828054611028906118f9565b80156110735780601f1061104a57610100808354040283529160200191611073565b820191905f5260205f20905b81548152906001019060200180831161105657829003601f168201915b50505050508152602001600882015f9054906101000a900460ff1660ff1660ff16815250509050919050565b6040518061014001604052805f81526020015f73ffffffffffffffffffffffffffffffffffffffff16815260200160608152602001606081526020015f81526020015f60038111156110f4576110f3611480565b5b81526020015f73ffffffffffffffffffffffffffffffffffffffff1681526020015f73ffffffffffffffffffffffffffffffffffffffff168152602001606081526020015f60ff1681525090565b5f5ffd5b5f5ffd5b5f819050919050565b61115c8161114a565b8114611166575f5ffd5b50565b5f8135905061117781611153565b92915050565b5f73ffffffffffffffffffffffffffffffffffffffff82169050919050565b5f6111a68261117d565b9050919050565b6111b68161119c565b81146111c0575f5ffd5b50565b5f813590506111d1816111ad565b92915050565b5f5ffd5b5f5ffd5b5f5ffd5b5f5f83601f8401126111f8576111f76111d7565b5b8235905067ffffffffffffffff811115611215576112146111db565b5b602083019150836001820283011115611231576112306111df565b5b9250929050565b5f5f5f5f606085870312156112505761124f611142565b5b5f61125d87828801611169565b945050602061126e878288016111c3565b935050604085013567ffffffffffffffff81111561128f5761128e611146565b5b61129b878288016111e3565b925092505092959194509250565b5f5f604083850312156112bf576112be611142565b5b5f6112cc858286016111c3565b92505060206112dd85828601611169565b9150509250929050565b6112f08161114a565b82525050565b5f6020820190506113095f8301846112e7565b92915050565b5f6020828403121561132457611323611142565b5b5f61133184828501611169565b91505092915050565b5f60ff82169050919050565b61134f8161133a565b8114611359575f5ffd5b50565b5f8135905061136a81611346565b92915050565b5f5f5f5f5f6060868803121561138957611388611142565b5b5f86013567ffffffffffffffff8111156113a6576113a5611146565b5b6113b2888289016111e3565b9550955050602086013567ffffffffffffffff8111156113d5576113d4611146565b5b6113e1888289016111e3565b935093505060406113f48882890161135c565b9150509295509295909350565b61140a8161119c565b82525050565b5f81519050919050565b5f82825260208201905092915050565b8281835e5f83830152505050565b5f601f19601f8301169050919050565b5f61145282611410565b61145c818561141a565b935061146c81856020860161142a565b61147581611438565b840191505092915050565b7f4e487b71000000000000000000000000000000000000000000000000000000005f52602160045260245ffd5b600481106114be576114bd611480565b5b50565b5f8190506114ce826114ad565b919050565b5f6114dd826114c1565b9050919050565b6114ed816114d3565b82525050565b6114fc8161133a565b82525050565b5f610140820190506115165f83018d6112e7565b611523602083018c611401565b8181036040830152611535818b611448565b90508181036060830152611549818a611448565b905061155860808301896112e7565b61156560a08301886114e4565b61157260c0830187611401565b61157f60e0830186611401565b8181036101008301526115928185611448565b90506115a26101208301846114f3565b9b9a5050505050505050505050565b5f602082840312156115c6576115c5611142565b5b5f6115d3848285016111c3565b91505092915050565b5f81519050919050565b5f82825260208201905092915050565b5f819050602082019050919050565b61160e8161114a565b82525050565b5f61161f8383611605565b60208301905092915050565b5f602082019050919050565b5f611641826115dc565b61164b81856115e6565b9350611656836115f6565b805f5b8381101561168657815161166d8882611614565b97506116788361162b565b925050600181019050611659565b5085935050505092915050565b5f6020820190508181035f8301526116ab8184611637565b905092915050565b6116bc8161119c565b82525050565b5f82825260208201905092915050565b5f6116dc82611410565b6116e681856116c2565b93506116f681856020860161142a565b6116ff81611438565b840191505092915050565b611713816114d3565b82525050565b6117228161133a565b82525050565b5f61014083015f83015161173e5f860182611605565b50602083015161175160208601826116b3565b506040830151848203604086015261176982826116d2565b9150506060830151848203606086015261178382826116d2565b91505060808301516117986080860182611605565b5060a08301516117ab60a086018261170a565b5060c08301516117be60c08601826116b3565b5060e08301516117d160e08601826116b3565b506101008301518482036101008601526117eb82826116d2565b915050610120830151611802610120860182611719565b508091505092915050565b5f6020820190508181035f8301526118258184611728565b905092915050565b7f4e6f7420726561647920666f722076616c69646174696f6e00000000000000005f82015250565b5f61186160188361141a565b915061186c8261182d565b602082019050919050565b5f6020820190508181035f83015261188e81611855565b9050919050565b5f82905092915050565b7f4e487b71000000000000000000000000000000000000000000000000000000005f52604160045260245ffd5b7f4e487b71000000000000000000000000000000000000000000000000000000005f52602260045260245ffd5b5f600282049050600182168061191057607f821691505b602082108103611923576119226118cc565b5b50919050565b5f819050815f5260205f209050919050565b5f6020601f8301049050919050565b5f82821b905092915050565b5f600883026119857fffffffffffffffffffffffffffffffffffffffffffffffffffffffffffffffff8261194a565b61198f868361194a565b95508019841693508086168417925050509392505050565b5f819050919050565b5f6119ca6119c56119c08461114a565b6119a7565b61114a565b9050919050565b5f819050919050565b6119e3836119b0565b6119f76119ef826119d1565b848454611956565b825550505050565b5f5f905090565b611a0e6119ff565b611a198184846119da565b505050565b5b81811015611a3c57611a315f82611a06565b600181019050611a1f565b5050565b601f821115611a8157611a5281611929565b611a5b8461193b565b81016020851015611a6a578190505b611a7e611a768561193b565b830182611a1e565b50505b505050565b5f82821c905092915050565b5f611aa15f1984600802611a86565b1980831691505092915050565b5f611ab98383611a92565b9150826002028217905092915050565b611ad38383611895565b67ffffffffffffffff811115611aec57611aeb61189f565b5b611af682546118f9565b611b01828285611a40565b5f601f831160018114611b2e575f8415611b1c578287013590505b611b268582611aae565b865550611b8d565b601f198416611b3c86611929565b5f5b82811015611b6357848901358255600182019150602085019450602081019050611b3e565b86831015611b805784890135611b7c601f891682611a92565b8355505b6001600288020188555050505b50505050505050565b828183375f83830152505050565b5f611baf838561141a565b9350611bbc838584611b96565b611bc583611438565b840190509392505050565b5f6020820190508181035f830152611be9818486611ba4565b90509392505050565b5f602082019050611c055f8301846114e4565b92915050565b7f4e6f742066756e646564000000000000000000000000000000000000000000005f82015250565b5f611c3f600a8361141a565b9150611c4a82611c0b565b602082019050919050565b5f6020820190508181035f830152611c6c81611c33565b9050919050565b7f4e487b71000000000000000000000000000000000000000000000000000000005f52601160045260245ffd5b5f611caa8261114a565b91507fffffffffffffffffffffffffffffffffffffffffffffffffffffffffffffffff8203611cdc57611cdb611c73565b5b600182019050919050565b611cf082611410565b67ffffffffffffffff811115611d0957611d0861189f565b5b611d1382546118f9565b611d1e828285611a40565b5f60209050601f831160018114611d4f575f8415611d3d578287015190505b611d478582611aae565b865550611dae565b601f198416611d5d86611929565b5f5b82811015611d8457848901518255600182019150602085019450602081019050611d5f565b86831015611da15784890151611d9d601f891682611a92565b8355505b6001600288020188555050505b505050505050565b5f6060820190508181035f830152611dcf818789611ba4565b90508181036020830152611de4818587611ba4565b9050611df360408301846114f3565b9695505050505050565b7f4e6f742066756e6461626c6500000000000000000000000000000000000000005f82015250565b5f611e31600c8361141a565b9150611e3c82611dfd565b602082019050919050565b5f6020820190508181035f830152611e5e81611e25565b9050919050565b7f4e6f204554482073656e740000000000000000000000000000000000000000005f82015250565b5f611e99600b8361141a565b9150611ea482611e65565b602082019050919050565b5f6020820190508181035f830152611ec681611e8d565b905091905056fea26469706673582212202a87f7436080dc93dac583e033be319c74383488a4b73fad072a400c6c0d122464736f6c634300081e0033","linkReferences":{}},"methodIdentifiers":{"fundStudy(uint256)":"5d600383","getStudiesByResearcher(address)":"b16345eb","getStudy(uint256)":"ecc6cbb4","markUnderReview(uint256)":"35761476","researcherStudies(address,uint256)":"27aa87d7","studies(uint256)":"611d2c96","studyCount()":"e455fa5a","submitStudy(string,string,uint8)":"52b2f852","submitValidation(uint256,address,string)":"2697b1c1"},"id":18}