{
  "abi": [
    {
      "type": "constructor",
      "inputs": [
        {
          "name": "_agent",
          "type": "address",
          "internalType": "address"
        }
      ],
      "stateMutability": "nonpayable"
    },
    {
      "type": "function",
      "name": "agent",
      "inputs": [],
      "outputs": [
        {
          "name": "",
          "type": "address",
          "internalType": "address"
        }
      ],
      "stateMutability": "view"
    },
    {
      "type": "function",
      "name": "getStudiesByResearcher",
      "inputs": [
        {
          "name": "researcher",
          "type": "address",
          "internalType": "address"
        }
      ],
      "outputs": [
        {
          "name": "",
          "type": "uint256[]",
          "internalType": "uint256[]"
        }
      ],
      "stateMutability": "view"
    },
    {
      "type": "function",
      "name": "getStudy",
      "inputs": [
        {
          "name": "studyId",
          "type": "uint256",
          "internalType": "uint256"
        }
      ],
      "outputs": [
        {
          "name": "",
          "type": "tuple",
          "internalType": "struct ResearchSubmission.Study",
          "components": [
            {
              "name": "id",
              "type": "uint256",
              "internalType": "uint256"
            },
            {
              "name": "researcher",
              "type": "address",
              "internalType": "address"
            },
            {
              "name": "ipfsHash",
              "type": "string",
              "internalType": "string"
            },
            {
              "name": "metadataURI",
              "type": "string",
              "internalType": "string"
            },
            {
              "name": "timestamp",
              "type": "uint256",
              "internalType": "uint256"
            },
            {
              "name": "aiReadinessScore",
              "type": "uint8",
              "internalType": "uint8"
            },
            {
              "name": "scoreSet",
              "type": "bool",
              "internalType": "bool"
            }
          ]
        }
      ],
      "stateMutability": "view"
    },
    {
      "type": "function",
      "name": "researcherStudies",
      "inputs": [
        {
          "name": "",
          "type": "address",
          "internalType": "address"
        },
        {
          "name": "",
          "type": "uint256",
          "internalType": "uint256"
        }
      ],
      "outputs": [
        {
          "name": "",
          "type": "uint256",
          "internalType": "uint256"
        }
      ],
      "stateMutability": "view"
    },
    {
      "type": "function",
      "name": "setAIReadinessScore",
      "inputs": [
        {
          "name": "studyId",
          "type": "uint256",
          "internalType": "uint256"
        },
        {
          "name": "score",
          "type": "uint8",
          "internalType": "uint8"
        }
      ],
      "outputs": [],
      "stateMutability": "nonpayable"
    },
    {
      "type": "function",
      "name": "studies",
      "inputs": [
        {
          "name": "",
          "type": "uint256",
          "internalType": "uint256"
        }
      ],
      "outputs": [
        {
          "name": "id",
          "type": "uint256",
          "internalType": "uint256"
        },
        {
          "name": "researcher",
          "type": "address",
          "internalType": "address"
        },
        {
          "name": "ipfsHash",
          "type": "string",
          "internalType": "string"
        },
        {
          "name": "metadataURI",
          "type": "string",
          "internalType": "string"
        },
        {
          "name": "timestamp",
          "type": "uint256",
          "internalType": "uint256"
        },
        {
          "name": "aiReadinessScore",
          "type": "uint8",
          "internalType": "uint8"
        },
        {
          "name": "scoreSet",
          "type": "bool",
          "internalType": "bool"
        }
      ],
      "stateMutability": "view"
    },
    {
      "type": "function",
      "name": "studyCount",
      "inputs": [],
      "outputs": [
        {
          "name": "",
          "type": "uint256",
          "internalType": "uint256"
        }
      ],
      "stateMutability": "view"
    },
    {
      "type": "function",
      "name": "submitStudy",
      "inputs": [
        {
          "name": "ipfsHash",
          "type": "string",
          "internalType": "string"
        },
        {
          "name": "metadataURI",
          "type": "string",
          "internalType": "string"
        }
      ],
      "outputs": [
        {
          "name": "",
          "type": "uint256",
          "internalType": "uint256"
        }
      ],
      "stateMutability": "nonpayable"
    },
    {
      "type": "function",
      "name": "updateagent",
      "inputs": [
        {
          "name": "newAgent",
          "type": "address",
          "internalType": "address"
        }
      ],
      "outputs": [],
      "stateMutability": "nonpayable"
    },
    {
      "type": "event",
      "name": "AIReadinessScoreSet",
      "inputs": [
        {
          "name": "studyId",
          "type": "uint256",
          "indexed": true,
          "internalType": "uint256"
        },
        {
          "name": "score",
          "type": "uint8",
          "indexed": false,
          "internalType": "uint8"
        }
      ],
      "anonymous": false
    },
    {
      "type": "event",
      "name": "StudySubmitted",
      "inputs": [
        {
          "name": "studyId",
          "type": "uint256",
          "indexed": true,
          "internalType": "uint256"
        },
        {
          "name": "researcher",
          "type": "address",
          "indexed": true,
          "internalType": "address"
        },
        {
          "name": "ipfsHash",
          "type": "string",
          "indexed": false,
          "internalType": "string"
        },
        {
          "name": "metadataURI",
          "type": "string",
          "indexed": false,
          "internalType": "string"
        },
        {
          "name": "timestamp",
          "type": "uint256",
          "indexed": false,
          "internalType": "uint256"
        }
      ],
      "anonymous": false
    }
  ],
  "bytecode": {
    "object": "0x608060405234801561000f575f5ffd5b50604051611a00380380611a00833981810160405281019061003191906100d5565b8060015f6101000a81548173ffffffffffffffffffffffffffffffffffffffff021916908373ffffffffffffffffffffffffffffffffffffffff16021790555050610100565b5f5ffd5b5f73ffffffffffffffffffffffffffffffffffffffff82169050919050565b5f6100a48261007b565b9050919050565b6100b48161009a565b81146100be575f5ffd5b50565b5f815190506100cf816100ab565b92915050565b5f602082840312156100ea576100e9610077565b5b5f6100f7848285016100c1565b91505092915050565b6118f38061010d5f395ff3fe608060405234801561000f575f5ffd5b5060043610610091575f3560e01c8063e455fa5a11610064578063e455fa5a1461015b578063ecc6cbb414610179578063f3490dfe146101a9578063f5ff5c76146101c5578063fbc2fc79146101e357610091565b806327aa87d714610095578063611d2c96146100c5578063b16345eb146100fb578063b7328dec1461012b575b5f5ffd5b6100af60048036038101906100aa9190610cef565b6101ff565b6040516100bc9190610d3c565b60405180910390f35b6100df60048036038101906100da9190610d55565b61022a565b6040516100f29796959493929190610e34565b60405180910390f35b61011560048036038101906101109190610eaf565b6103ac565b6040516101229190610f91565b60405180910390f35b61014560048036038101906101409190611012565b61043f565b6040516101529190610d3c565b60405180910390f35b610163610754565b6040516101709190610d3c565b60405180910390f35b610193600480360381019061018e9190610d55565b610759565b6040516101a091906111a5565b60405180910390f35b6101c360048036038101906101be9190610eaf565b610943565b005b6101cd610a15565b6040516101da91906111c5565b60405180910390f35b6101fd60048036038101906101f89190611208565b610a3a565b005b6003602052815f5260405f208181548110610218575f80fd5b905f5260205f20015f91509150505481565b6002602052805f5260405f205f91509050805f015490806001015f9054906101000a900473ffffffffffffffffffffffffffffffffffffffff169080600201805461027490611273565b80601f01602080910402602001604051908101604052809291908181526020018280546102a090611273565b80156102eb5780601f106102c2576101008083540402835291602001916102eb565b820191905f5260205f20905b8154815290600101906020018083116102ce57829003601f168201915b50505050509080600301805461030090611273565b80601f016020809104026020016040519081016040528092919081815260200182805461032c90611273565b80156103775780601f1061034e57610100808354040283529160200191610377565b820191905f5260205f20905b81548152906001019060200180831161035a57829003601f168201915b505050505090806004015490806005015f9054906101000a900460ff16908060050160019054906101000a900460ff16905087565b606060035f8373ffffffffffffffffffffffffffffffffffffffff1673ffffffffffffffffffffffffffffffffffffffff1681526020019081526020015f2080548060200260200160405190810160405280929190818152602001828054801561043357602002820191905f5260205f20905b81548152602001906001019080831161041f575b50505050509050919050565b5f5f8585905011610485576040517f08c379a000000000000000000000000000000000000000000000000000000000815260040161047c906112ed565b60405180910390fd5b5f83839050116104ca576040517f08c379a00000000000000000000000000000000000000000000000000000000081526004016104c190611355565b60405180910390fd5b5f5f8154809291906104db906113a0565b91905055506040518060e001604052805f5481526020013373ffffffffffffffffffffffffffffffffffffffff16815260200186868080601f0160208091040260200160405190810160405280939291908181526020018383808284375f81840152601f19601f82011690508083019250505050505050815260200184848080601f0160208091040260200160405190810160405280939291908181526020018383808284375f81840152601f19601f8201169050808301925050505050505081526020014281526020015f60ff1681526020015f151581525060025f5f5481526020019081526020015f205f820151815f01556020820151816001015f6101000a81548173ffffffffffffffffffffffffffffffffffffffff021916908373ffffffffffffffffffffffffffffffffffffffff160217905550604082015181600201908161062a91906115b4565b50606082015181600301908161064091906115b4565b506080820151816004015560a0820151816005015f6101000a81548160ff021916908360ff16021790555060c08201518160050160016101000a81548160ff02191690831515021790555090505060035f3373ffffffffffffffffffffffffffffffffffffffff1673ffffffffffffffffffffffffffffffffffffffff1681526020019081526020015f205f54908060018154018082558091505060019003905f5260205f20015f90919091909150553373ffffffffffffffffffffffffffffffffffffffff165f547f3724a18bcbb73d96ab5e900d6a69c2a86da49d679d99a9884719b045b1bbec9c87878787426040516107409594939291906116bd565b60405180910390a35f549050949350505050565b5f5481565b610761610c07565b60025f8381526020019081526020015f206040518060e00160405290815f8201548152602001600182015f9054906101000a900473ffffffffffffffffffffffffffffffffffffffff1673ffffffffffffffffffffffffffffffffffffffff1673ffffffffffffffffffffffffffffffffffffffff1681526020016002820180546107eb90611273565b80601f016020809104026020016040519081016040528092919081815260200182805461081790611273565b80156108625780601f1061083957610100808354040283529160200191610862565b820191905f5260205f20905b81548152906001019060200180831161084557829003601f168201915b5050505050815260200160038201805461087b90611273565b80601f01602080910402602001604051908101604052809291908181526020018280546108a790611273565b80156108f25780601f106108c9576101008083540402835291602001916108f2565b820191905f5260205f20905b8154815290600101906020018083116108d557829003601f168201915b5050505050815260200160048201548152602001600582015f9054906101000a900460ff1660ff1660ff1681526020016005820160019054906101000a900460ff1615151515815250509050919050565b60015f9054906101000a900473ffffffffffffffffffffffffffffffffffffffff1673ffffffffffffffffffffffffffffffffffffffff163373ffffffffffffffffffffffffffffffffffffffff16146109d2576040517f08c379a00000000000000000000000000000000000000000000000000000000081526004016109c99061174e565b60405180910390fd5b8060015f6101000a81548173ffffffffffffffffffffffffffffffffffffffff021916908373ffffffffffffffffffffffffffffffffffffffff16021790555050565b60015f9054906101000a900473ffffffffffffffffffffffffffffffffffffffff1681565b60015f9054906101000a900473ffffffffffffffffffffffffffffffffffffffff1673ffffffffffffffffffffffffffffffffffffffff163373ffffffffffffffffffffffffffffffffffffffff1614610ac9576040517f08c379a0000000000000000000000000000000000000000000000000000000008152600401610ac0906117b6565b60405180910390fd5b60648160ff161115610b10576040517f08c379a0000000000000000000000000000000000000000000000000000000008152600401610b079061181e565b60405180910390fd5b60025f8381526020019081526020015f2060050160019054906101000a900460ff1615610b72576040517f08c379a0000000000000000000000000000000000000000000000000000000008152600401610b6990611886565b60405180910390fd5b8060025f8481526020019081526020015f206005015f6101000a81548160ff021916908360ff160217905550600160025f8481526020019081526020015f2060050160016101000a81548160ff021916908315150217905550817f47ff72457542a1399d33563409ed59ffc433b2879a363012d5c064fc4ae68bf182604051610bfb91906118a4565b60405180910390a25050565b6040518060e001604052805f81526020015f73ffffffffffffffffffffffffffffffffffffffff16815260200160608152602001606081526020015f81526020015f60ff1681526020015f151581525090565b5f5ffd5b5f5ffd5b5f73ffffffffffffffffffffffffffffffffffffffff82169050919050565b5f610c8b82610c62565b9050919050565b610c9b81610c81565b8114610ca5575f5ffd5b50565b5f81359050610cb681610c92565b92915050565b5f819050919050565b610cce81610cbc565b8114610cd8575f5ffd5b50565b5f81359050610ce981610cc5565b92915050565b5f5f60408385031215610d0557610d04610c5a565b5b5f610d1285828601610ca8565b9250506020610d2385828601610cdb565b9150509250929050565b610d3681610cbc565b82525050565b5f602082019050610d4f5f830184610d2d565b92915050565b5f60208284031215610d6a57610d69610c5a565b5b5f610d7784828501610cdb565b91505092915050565b610d8981610c81565b82525050565b5f81519050919050565b5f82825260208201905092915050565b8281835e5f83830152505050565b5f601f19601f8301169050919050565b5f610dd182610d8f565b610ddb8185610d99565b9350610deb818560208601610da9565b610df481610db7565b840191505092915050565b5f60ff82169050919050565b610e1481610dff565b82525050565b5f8115159050919050565b610e2e81610e1a565b82525050565b5f60e082019050610e475f83018a610d2d565b610e546020830189610d80565b8181036040830152610e668188610dc7565b90508181036060830152610e7a8187610dc7565b9050610e896080830186610d2d565b610e9660a0830185610e0b565b610ea360c0830184610e25565b98975050505050505050565b5f60208284031215610ec457610ec3610c5a565b5b5f610ed184828501610ca8565b91505092915050565b5f81519050919050565b5f82825260208201905092915050565b5f819050602082019050919050565b610f0c81610cbc565b82525050565b5f610f1d8383610f03565b60208301905092915050565b5f602082019050919050565b5f610f3f82610eda565b610f498185610ee4565b9350610f5483610ef4565b805f5b83811015610f84578151610f6b8882610f12565b9750610f7683610f29565b925050600181019050610f57565b5085935050505092915050565b5f6020820190508181035f830152610fa98184610f35565b905092915050565b5f5ffd5b5f5ffd5b5f5ffd5b5f5f83601f840112610fd257610fd1610fb1565b5b8235905067ffffffffffffffff811115610fef57610fee610fb5565b5b60208301915083600182028301111561100b5761100a610fb9565b5b9250929050565b5f5f5f5f6040858703121561102a57611029610c5a565b5b5f85013567ffffffffffffffff81111561104757611046610c5e565b5b61105387828801610fbd565b9450945050602085013567ffffffffffffffff81111561107657611075610c5e565b5b61108287828801610fbd565b925092505092959194509250565b61109981610c81565b82525050565b5f82825260208201905092915050565b5f6110b982610d8f565b6110c3818561109f565b93506110d3818560208601610da9565b6110dc81610db7565b840191505092915050565b6110f081610dff565b82525050565b6110ff81610e1a565b82525050565b5f60e083015f83015161111a5f860182610f03565b50602083015161112d6020860182611090565b506040830151848203604086015261114582826110af565b9150506060830151848203606086015261115f82826110af565b91505060808301516111746080860182610f03565b5060a083015161118760a08601826110e7565b5060c083015161119a60c08601826110f6565b508091505092915050565b5f6020820190508181035f8301526111bd8184611105565b905092915050565b5f6020820190506111d85f830184610d80565b92915050565b6111e781610dff565b81146111f1575f5ffd5b50565b5f81359050611202816111de565b92915050565b5f5f6040838503121561121e5761121d610c5a565b5b5f61122b85828601610cdb565b925050602061123c858286016111f4565b9150509250929050565b7f4e487b71000000000000000000000000000000000000000000000000000000005f52602260045260245ffd5b5f600282049050600182168061128a57607f821691505b60208210810361129d5761129c611246565b5b50919050565b7f4d697373696e67204950465320686173680000000000000000000000000000005f82015250565b5f6112d7601183610d99565b91506112e2826112a3565b602082019050919050565b5f6020820190508181035f830152611304816112cb565b9050919050565b7f4d697373696e67206d65746164617461000000000000000000000000000000005f82015250565b5f61133f601083610d99565b915061134a8261130b565b602082019050919050565b5f6020820190508181035f83015261136c81611333565b9050919050565b7f4e487b71000000000000000000000000000000000000000000000000000000005f52601160045260245ffd5b5f6113aa82610cbc565b91507fffffffffffffffffffffffffffffffffffffffffffffffffffffffffffffffff82036113dc576113db611373565b5b600182019050919050565b7f4e487b71000000000000000000000000000000000000000000000000000000005f52604160045260245ffd5b5f819050815f5260205f209050919050565b5f6020601f8301049050919050565b5f82821b905092915050565b5f600883026114707fffffffffffffffffffffffffffffffffffffffffffffffffffffffffffffffff82611435565b61147a8683611435565b95508019841693508086168417925050509392505050565b5f819050919050565b5f6114b56114b06114ab84610cbc565b611492565b610cbc565b9050919050565b5f819050919050565b6114ce8361149b565b6114e26114da826114bc565b848454611441565b825550505050565b5f5f905090565b6114f96114ea565b6115048184846114c5565b505050565b5b818110156115275761151c5f826114f1565b60018101905061150a565b5050565b601f82111561156c5761153d81611414565b61154684611426565b81016020851015611555578190505b61156961156185611426565b830182611509565b50505b505050565b5f82821c905092915050565b5f61158c5f1984600802611571565b1980831691505092915050565b5f6115a4838361157d565b9150826002028217905092915050565b6115bd82610d8f565b67ffffffffffffffff8111156115d6576115d56113e7565b5b6115e08254611273565b6115eb82828561152b565b5f60209050601f83116001811461161c575f841561160a578287015190505b6116148582611599565b86555061167b565b601f19841661162a86611414565b5f5b828110156116515784890151825560018201915060208501945060208101905061162c565b8683101561166e578489015161166a601f89168261157d565b8355505b6001600288020188555050505b505050505050565b828183375f83830152505050565b5f61169c8385610d99565b93506116a9838584611683565b6116b283610db7565b840190509392505050565b5f6060820190508181035f8301526116d6818789611691565b905081810360208301526116eb818587611691565b90506116fa6040830184610d2d565b9695505050505050565b7f4f6e6c792063757272656e74206167656e742063616e207570646174650000005f82015250565b5f611738601d83610d99565b915061174382611704565b602082019050919050565b5f6020820190508181035f8301526117658161172c565b9050919050565b7f4e6f7420617574686f72697a65640000000000000000000000000000000000005f82015250565b5f6117a0600e83610d99565b91506117ab8261176c565b602082019050919050565b5f6020820190508181035f8301526117cd81611794565b9050919050565b7f53636f7265206d75737420626520302d313030000000000000000000000000005f82015250565b5f611808601383610d99565b9150611813826117d4565b602082019050919050565b5f6020820190508181035f830152611835816117fc565b9050919050565b7f416c72656164792073636f7265640000000000000000000000000000000000005f82015250565b5f611870600e83610d99565b915061187b8261183c565b602082019050919050565b5f6020820190508181035f83015261189d81611864565b9050919050565b5f6020820190506118b75f830184610e0b565b9291505056fea2646970667358221220533a45597cd12221d6227e0e8f4a0d6943260b773aeaf84cb5facd11ce3668eb64736f6c634300081e0033",
    "linkReferences": {}
  },
  "methodIdentifiers": {
    "agent()": "f5ff5c76",
    "getStudiesByResearcher(address)": "b16345eb",
    "getStudy(uint256)": "ecc6cbb4",
    "researcherStudies(address,uint256)": "27aa87d7",
    "setAIReadinessScore(uint256,uint8)": "fbc2fc79",
    "studies(uint256)": "611d2c96",
    "studyCount()": "e455fa5a",
    "submitStudy(string,string)": "b7328dec",
    "updateagent(address)": "f3490dfe"
  },
  "id": 17
}